:020000040800F2
:10000000400C002001010008351B0008951600086F
:10001000311B0008F501000851270008000000000E
:10002000000000000000000000000000752600082D
:10003000F901000800000000712600087926000878
:100040001B0100081B0100081B0100081B01000820
:100050001B0100081B0100081B0100081B01000810
:100060001B0100081B0100081B0100081B01000800
:100070001B0100081B0100081B0100081B010008F0
:100080001B0100081B0100081B0100081B010008E0
:100090001B0100081B0100081B0100081B010008D0
:1000A0001B0100081B0100081B0100081B010008C0
:1000B0001B0100081B0100081B0100081B010008B0
:1000C0001B0100081B0100081B0100081B010008A0
:1000D0001B010008452700081B0100081B01000840
:1000E0001B0100081B0100081B010008DFF80CD0F1
:1000F00000F042F8004800475D290008400C00204D
:100100000648804706480047FEE7FEE7FEE7FEE7B1
:10011000FEE7FEE7FEE7FEE7FEE7FEE77D260008D6
:10012000ED0000080649074A0868504343F23902C7
:10013000104408604008704701490860704700009B
:10014000000000206D4EC64110B5002200E0521C98
:10015000835C8C5CA34201D1002BF8D1D8B2E1B210
:10016000401A10BD034611F8012B00F8012B002A9C
:10017000F9D1184670470000064C074D06E0E068CC
:1001800040F0010394E8070098471034AC42F6D3DE
:10019000FFF7B0FFEC3900080C3A000870B58C1876
:1001A00010F8015B15F0070301D110F8013B2A118B
:1001B00006D110F8012B03E010F8016B01F8016B78
:1001C0005B1EF9D12B0705D40023521E0DD401F874
:1001D000013BFAE710F8013BCB1A921C03E013F83D
:1001E000015B01F8015B521EF9D5A142D8D3002072
:1001F00070BD0000FEE7000070470000EFF31080C4
:1002000072B600BFFEE70000014690F82100022808
:1002100016D10868D1E90FC3026822F00E0202600D
:10022000026822F001020260012000FA03F2CCF819
:10023000042081F821000020002281F8202070474E
:10024000042088630120002281F8202070470000EC
:1002500080B590F82110022924D10268116821F09C
:100260000E0111602F211368C4F202018A4240F28C
:100270000401C4F2020123F00103136016DD3023F0
:10028000C4F202039A421DD04423C4F202039A42EC
:100290001CD05823C4F202039A421DD14FF480337C
:1002A00022E000BF04218163012080BD0823C4F245
:1002B00002039A420ED01C23C4F202039A420BD1CD
:1002C000102311E04FF480730EE000BF4FF4805311
:1002D0000AE000BF012307E001F1680C4FF08073D2
:1002E000624508BF4FF480130B60416B4FF480727E
:1002F000028401B18847002080BD0000B0B50446EB
:1003000000F032F9054640F20800C2F20000007821
:10031000611C18BF044400BF00F026F9401BA04236
:10032000FAD3B0BD2DE9F04F82B00E68002E00F078
:10033000038140F20C4C41F200424FF6FF7EC4F2C2
:10034000010CC4F20102042700240123C1F2100EA3
:100350004FF0000A4FF00009904208BF03270097B2
:1003600045E000BF012704F00C030F229A402BEA5E
:10037000020207FA03F34FEA9A051A4346F82520CA
:10038000D1F804B040F20045C4F201055FEACB3277
:100390002A6854BF22EA080242EA08022A606A6810
:1003A0005FEA8B3354BF22EA080242EA08026A601D
:1003B0005FEACB23AA6854BF22EA080242EA080295
:1003C0005FEA8B23AA60DCF800204FF0010354BFE2
:1003D00022EA080242EA0802CCF800200E680AF17C
:1003E000010A36FA0AF204F1040400F0A58003FAC7
:1003F0000AF816EA080FF1D04E68764512DC122E84
:1004000056D8DFE806F0350B454955555555555535
:10041000555555555555554D510000BFD1F80C90C7
:1004200046E000BF4FF6FF72C1F2210296420FDC98
:100430000022C1F2110296421AD00022C1F2120229
:10044000964215D00022C1F22102964210D02FE030
:100450000022C1F2220296420AD00022C1F23102E9
:10046000964205D00022C1F23202964220D100BF4E
:100470008A684AB1012A14BFC0F81480C0F81080FD
:100480004FF0080914E000BF4FF0040910E000BF6E
:10049000CA6802F108090BE04FF0000908E000BF4C
:1004A000CA6802F1040903E0CA6802F10C0900BF3E
:1004B00022460646BAF1080F24BF203A04363768B0
:1004C0000F25954027EA050509FA02F22A43326012
:1004D000CA79D2067FF582AF41F21803C4F2020353
:1004E0001A6842F001021A601A6802F001020192D1
:1004F000019A40F20042C4F20102A2F57E762AF08F
:10050000030256F802B040F60002C4F20102904223
:1005100010D040F60042C4F2010290423FF422AFF4
:1005200041F20002C4F20102009F904208BF02277C
:1005300019E700BF002716E702B0BDE8F08F000002
:100540008068084018BF012070470000C26802EAB6
:100550000103914341EA034101617047002A08BF4A
:10056000090401617047000040F63800C2F2000043
:100570000068704770B5B8B3044690F83D0028B9DC
:10058000002084F83C00204600F09EF9242084F8E6
:100590003D002068016821F001010160016841F41B
:1005A00000410160016821F40041016000F056FB48
:1005B00048F28041C0F21E0140F60013D4F804E076
:1005C00088424FF00001C0F23D0348F2A16C4FF0A9
:1005D000000238BF01219842C0F2010C38BF01224D
:1005E000E64538BF0A460AB1012070BD4DF6836169
:1005F000C4F21B31A0FB01122168950C4B684FF42B
:10060000967623F03F0343EA9243754344F6D3566C
:100610004B60C1F262060B6AA5FB0656B50923F0D2
:100620003F03E64538BF950C6A1C1A430A62CA6943
:1006300048F2A0664CF6FF73C0F20106B64522EA06
:1006400003020BD801384FEA4E03B0FBF3F0013040
:100650006FF31F30042898BF04201EE0A368013800
:1006600063B119230EFB03F3B0FBF3F001306FF31A
:100670001F3078B100F5804008E000BF0EEB4E035C
:10068000B0FBF3F001306FF31F3028B100F50040EC
:1006900003E000BF012000E001201043C8610868AA
:1006A000D4E9072320F0C00010431843086088688D
:1006B00048F2FF3204F10C0690434CCE184310432D
:1006C000A5698860C86820F0FF0030432843C860EF
:1006D000086840F00100086000202021206484F8B0
:1006E0003D10206384F83E0070BD00002DE9F0430A
:1006F00083B0994616460F460446FFF735FF94F837
:100700003D1020291CD1054620688169890713D531
:10071000FFF72AFF401B1928F6D90020202120636B
:1007200084F83D1084F83E00216C41F020012164E2
:1007300084F83C0004E000BF94F83C10012903D188
:10074000022003B0BDE8F083012284F83C20036856
:10075000DDE90B180A9ADB0703D1036843F00103B4
:100760000360036823F400630360212084F83D00E4
:10077000402084F83E000020206462626185608D24
:10078000394620850020CFF6FF70E06220463246D1
:100790004B46CDF80080019500F07EFF20B101208E
:1007A00003B0BDE8F08300BF208D002850D0206842
:1007B00008F10106014651F8142F12062CD49EB1FF
:1007C000B8F1000F5AD000BF086840055ED4FFF7AB
:1007D000CBFE401B404556D82068014651F8142FE7
:1007E0001206F1D518E000BF0A6852054ED40A6817
:1007F000120611D40A68520548D40A6812060BD4AE
:100800000A68520542D40A68120605D40A685205DD
:100810003CD40A681206E7D5626A114611F8013B1A
:100820000361238D6162591E2185678D013F6785B4
:1008300047697F070AD50F0408D051780161911CE0
:100840006162991E2185628D013A62850904B1D1E8
:10085000204641462A4601F059F838BB2068016815
:1008600041F400710160202084F83D00002084F8EC
:100870003E0084F83C0003B0BDE8F0830868400502
:1008800004D4FFF771FE202004E000BF6FF4806005
:100890000860042000212022216384F83D2084F890
:1008A0003E10226C1043206484F83C10206C042815
:1008B0007FF475AF2068016841F400710160012088
:1008C00003B0BDE8F083000010B586B045F20041EA
:1008D0000068C4F2000100228842049202D006B0EF
:1008E00010BD00BF41F21804C4F20204206840F0B9
:1008F00008002060206800F0080001900198C020E6
:100900000290122003900320059001F5384002A9BF
:10091000FFF708FD606840F400106060606800F454
:1009200000100190019806B010BD000040F20800D0
:1009300040F63801C2F20000C2F2000100780A68F5
:10094000104408607047000080B542F20000C4F215
:100950000200016841F010010160032000F08EF8F0
:100960000F2000F005F800F027F8002080BD0000FF
:1009700070B540F20806C2F2000640F2D05132785B
:10098000C2F200014FF47A730968B3FBF2F2044635
:10099000B1FBF2F1084600F063FB0F2C4FF00105AC
:1009A00008D838B94FF0FF3021460022002500F06A
:1009B00039F87460284670BD82B041F21800C4F264
:1009C00002000168022241F001010160016801F0AA
:1009D000010101910199416841F0805141604068F5
:1009E00000F08050009000980420C4F201000168DB
:1009F00062F31A61016002B070470000002848BF2E
:100A00007047C1B200F01F00012202FA00F04EF25E
:100A10000012CEF2000242EAD10121F00301086087
:100A20007047000010B54EF60C5CCEF2000CDCF8FE
:100A30000030C3F3022E8EF00704042C28BF0424D8
:100A4000BEF103034FF0FF3E0EFA04F438BF00235B
:100A5000A14399400EFA03F39A43114300F00F02A9
:100A600000F160430901043A03F56443624400283D
:100A700048BF02F10C03197010BD00004EF60C5176
:100A8000CEF200010A684FF6FF031A4060F30A2213
:100A900042F0806040F0FD70086070472DE9F0433F
:100AA00081B0002800F0858042F20008C4F20208FC
:100AB0000446D8F800000D4600F0070088420CD22A
:100AC000D8F8000020F007002843C8F80000D8F844
:100AD000000000F00700A8426BD1206841F2040931
:100AE0008107C4F2020917D5410705D5D9F80010CE
:100AF00041F4E061C9F80010010705D5D9F80010EC
:100B000041F46051C9F80010D9F80010A26821F032
:100B1000F0011143C9F80010C00741D1D8F8000016
:100B200000F00700A8420CD9D8F8000020F0070018
:100B30002843C8F80000D8F8000000F00700A842D9
:100B400037D12068410707D5D9F80010E26821F4B1
:100B5000E0611143C9F80010000708D5D9F800007A
:100B6000216920F4605040EAC100C9F80000D9F8BA
:100B7000002002F00C00082841F20020C0F27A00A8
:100B800050D143F2DE73C2F38341C0F60003595CD7
:100B9000D2033BD440F60010C0F23D00484341E090
:100BA000606802280AD001282AD159F8041C890358
:100BB00008D4012001B0BDE8F08300BF59F8041C3F
:100BC0008901F6D5D9F8001021F003010843C9F8CE
:100BD0000000FFF7C9FC064641F28837D9F800004B
:100BE000616800F00C00B0EB810F97D0FFF7BCFC00
:100BF000801BB842F2D9032001B0BDE8F08300BFEA
:100C000059F8041C8907D4D5DCE700BFD9F80020C7
:100C100042F6AC73C2F34042C0F600039A5C48430C
:100C2000B0FBF2F0D9F8001042F6AE72C1F3031136
:100C3000C0F60002515C40F2D05220FA01F140F2BD
:100C40000C00C2F200000068C2F200021160FFF75F
:100C50008FFE002001B0BDE8F083000040F2D050CC
:100C600041F20401C2F20000C4F202010068096806
:100C700042F6BE72C1F30221C0F60002515CC840C8
:100C80007047000040F2D05041F20401C2F200006F
:100C9000C4F202010068096842F6BE72C1F3C221C3
:100CA000C0F60002515CC840704700002DE9F041D9
:100CB00082B0002868D00446007841F20006C007E0
:100CC000C4F2020625D0706800F00C0004281BD086
:100CD000706800F00C00082802D17068C00313D4BB
:100CE0006068002800F06881B0F5A02F00F07C81DA
:100CF000B0F5803F00F07C81306820F480303060B7
:100D0000306820F4802076E13068800301D5606887
:100D1000D0B32078800718D5706810F00C0F07D07A
:100D2000706800F00C0008286ED17068C0036BD4A6
:100D30003068800702D52069012825D130686169B3
:100D400020F0F80040EAC1003060207800071FD48E
:100D50002078400732D4E56995B1706800F00C0046
:100D6000082840F08F80012D0ED07068216A00F4B1
:100D700080328A4208D1616A00F47010884203D13F
:100D8000002002B0BDE8F081012002B0BDE8F08192
:100D9000A069002862D00020C4F242200121C0F8DE
:100DA0008014FFF7E1FB0546706A800700F18C8034
:100DB000FFF7DAFB401B0228F6D92AE1F06910F0B0
:100DC000805808D1F06940F08050F061F06900F07F
:100DD00080500090009847F20007C4F2000738687E
:100DE000C00529D4386840F480703860FFF7BCFB38
:100DF000054600BF3868C0051ED4FFF7B5FB401B91
:100E00006428F7D905E100BF2069002840F20000FE
:100E1000C4F2422000F0828001210160FFF7A4FBB0
:100E2000054600BF306880073FF588AFFFF79CFBA1
:100E3000401B0228F6D9ECE0E068002800F0808032
:100E4000052800F09780012800F09880306A20F093
:100E500001003062306A20F0040092E00020C4F209
:100E600042200021C0F88014FFF77EFB054600BF3A
:100E7000706A80077FF56CAFFFF776FB401B022896
:100E8000F6D9C6E00027C4F2422700203866FFF7F3
:100E90006BFB022D05460BD13068800140F1BE800E
:100EA000FFF762FB401B02284FF00300F4D968E70C
:100EB000306880017FF564AFFFF756FB401B0228C6
:100EC0004FF00300F4D95CE740F2D050C2F20000CA
:100ED000006844F6D351C1F26201A0FB0101480A47
:100EE000019000BF00BF0198411E002801913FF40E
:100EF0002FAF00BF0198411E002801913FF428AF99
:100F000000BF0198411E002801913FF421AF00BFAE
:100F10000198411E00280191E4D119E700210160E8
:100F2000FFF722FB054600BF306880077FF50DAF55
:100F3000FFF71AFB401B02284FF00300F4D920E70B
:100F4000306A20F001003062306A20F00400306224
:100F5000FFF70AFB054641F2883700BF306A800779
:100F600020D5FFF701FB401BB8424FF00300F5D935
:100F700007E700BF306A40F004003062306A40F09A
:100F800001003062FFF7F0FA054641F2883700BFF2
:100F9000306A800706D4FFF7E7FA401BB842F7D95A
:100FA00037E000BFB8F1000F7FF4D5AEF06920F054
:100FB0008050F061CFE600BF306820F480303060B0
:100FC000306820F480203060FFF7CEFA054600BF7D
:100FD000306880037FF59DAEFFF7C6FA401B64289A
:100FE0004FF00300F4D9CCE6306840F48020306044
:100FF000306840F480303060FFF7B6FA054600BF35
:10100000306880033FF585AEFFF7AEFA401B6428D9
:10101000F6D9032002B0BDE8F08100BF206AB0F528
:10102000803F05D17168A26821F4003111437160DD
:101030007168626A21F474111143084370600120E1
:101040003866FFF791FA0446306880013FF598AEA4
:10105000FFF78AFA001B02284FF00300F4D990E64C
:10106000411E0020B0EB116F1CBF012070474EF2F3
:101070001002CEF2000251604EF62351CEF2000172
:10108000F0230B70072190601160704770470000DB
:1010900070470000B0B582B0026805461068D3689A
:1010A000546900F02F01202903F0200106D129B155
:1010B000284602B0BDE8B04001F0E8BA5FEA007C23
:1010C0001EBF04F0010E03F4907414EB0E0453D110
:1010D000296B012905D110F0100118BF13F0100180
:1010E00036D1010622D513F080011FD095F83D00BE
:1010F00021283FD1A868B0F5805F03D12869002876
:1011000000F0F880286A411C296200785060E88C61
:1011100001380104E8842DD1D06820F08000D0602F
:10112000D06840F04000D06002B0B0BD400621D58C
:1011300013F040001ED0D068202120F04000D06085
:10114000284685F83D1002B0BDE8B04000F0A0BAD6
:10115000002001901068019050680190019850693A
:10116000400611D4A88DE98DEB8D002B18BF884265
:1011700040F0A68002B0B0BDC40718BF13F480735E
:101180002CD1430730D436E0A86B01684B689CB281
:10119000002CEFD0A98D8C42ECD2EB858369202BFB
:1011A00017D0D16821F48071D160516921F001011B
:1011B0005161516921F040015161202185F83E10B3
:1011C00000212963D16821F01001D160FFF71CF8DC
:1011D000A98DE88D081A81B2284685E02B6C43F072
:1011E00001032B64430706D5BEF1000F03D02B6C1F
:1011F00043F002032B64830706D5BEF1000F03D032
:101200002B6C43F004032B64BCF1000F09D541EAB9
:101210000E03B3FA83F35B0903D12B6C43F008038D
:101220002B642B6C002BA5D010F0200018BF0029D8
:1012300003D0284601F02AFA2A685069296C00F088
:10124000400001F0080140182CD0D06820F49070C4
:10125000D060506920F001005061286B012803D153
:10126000D06820F01000D060202085F83E000020DB
:101270002863506940061DD5506920F04000506138
:10128000A86BB8B142F28161C0F600014163FEF77C
:10129000DFFF00283FF46EAFA86B416B02B0BDE8E2
:1012A000B04008472846FFF7F3FE0020286402B04C
:1012B000B0BD00BF284602B0BDE8B040FFF7E8BEB1
:1012C000D368401A23F49073D360536981B223F03A
:1012D00001035361202385F83E3000232B63D3683C
:1012E000284623F01003D36002B0BDE8B040FFF7FA
:1012F000CDBE00BF286A30F8021B6FF35F2151603A
:10130000286204E7002804BF0120704710B5044696
:1013100090F83D0028B9002084F83C00204600F0F9
:1013200061F8242084F83D002068D4E90212C368E3
:1013300023F40053C360036923F440531A4302614A
:10134000D4E904231143C268194341F20C639A4360
:101350001143C1604169A26921F44071114343F610
:101360000002C4F201029042416103D0FFF776FC13
:1013700002E000BFFFF786FC626819214843910034
:10138000B0FBF1F048F21F51C5F2EB11A0FB0123B5
:101390005A094FF69C73C0F6FF7302FB0300322319
:1013A00003EB0010A0FB0101F02303EA51132068B6
:1013B00003EB0212C1F3431111448160016921F46E
:1013C00090410161416921F02A014161C16841F404
:1013D0000051C16000202021206484F83D1084F871
:1013E0003E1010BD70B586B0006844F60001C4F22E
:1013F0000001002688420596CDE9036602963FD09B
:1014000043F60001C4F2010188426AD141F218009A
:10141000C4F20200016840F6000441F4804101601A
:101420000168C4F2010401F480410191019901684D
:1014300002AD41F0040101600068294600F004009B
:10144000019001984FF40070029002200390032055
:1014500005902046FEF766FF4FF480600290002062
:10146000CDE9030020462946FEF75CFF2520002138
:101470000022FFF7D7FA2520FFF7C0FA06B070BDAB
:1014800041F21800C4F20200416802AD41F480212B
:101490004160416801F4802101910199016841F0A6
:1014A000080101600068294600F0080001900198D9
:1014B0004FF480600290022003900320059040F6D4
:1014C0000000C4F2010000F580642046FEF72AFF08
:1014D0004FF40060CDE90206204629460496FEF747
:1014E00021FF06B070BD0000704700002DE9F041FB
:1014F000044690F83D0020280ED10D4600294FF0FB
:10150000010000F08E801646002A08BFBDE8F08179
:1015100094F83C00012803D10220BDE8F08100BF0F
:10152000012084F83C00002020642120984684F8A3
:101530003D00FFF719F8A684E684A1680646B1F5D8
:10154000805F03D12069002800F0A0802F4600258D
:10155000002084F83C00E08CE0B118F101001BD0C1
:10156000B8F1000F60D120680BE000BF35F8021B16
:1015700000276FF35F214160E18C0139E184E18C48
:1015800051B3016809066DD5002FEFD017F8011B84
:10159000F1E700BF20681FE0206802E0016809064B
:1015A00009D40168090606D4016809065CBF016810
:1015B0005FEA0161F2D51FB117F8011B05E000BF1A
:1015C00035F8021B00276FF35F214160E18C013980
:1015D000E184E18C0029E4D1016849061DD4B8F109
:1015E000000F3FD018F101010ED10168490614D453
:1015F000016849065CBF01685FEA41610DD401687A
:101600004906F2D509E000BFFEF7AEFF811B206856
:10161000414527D800684006F6D5202084F83D00D3
:101620000020BDE8F08100BF206800BF0168090606
:1016300006D4FEF799FF811B20684145F6D911E0D9
:1016400017B117F8011B04E035F8021B00276FF3F0
:101650005F214160E18C0139E184E18C0029E5D111
:10166000BAE700BFC16821F4D071C160416921F0BF
:1016700001014161202084F83D0084F83E000020F3
:1016800084F83C000320BDE8F08100BF00275FE73D
:1016900070470000FEE700002DE9F04381B00446EA
:1016A000006890460268099D42F4807202604269B7
:1016B000089E9946D2070F461DD1711C11D0002EED
:1016C00000F0D280FEF750FF401BB04200F2CE8007
:1016D00020684169C907F5D00DE000BF4169C9071D
:1016E00009D14169C90706D14169C90704BF4169E8
:1016F0005FEAC171F2D007F0FE010161416989071B
:1017000038D44169721C01F4806111D049BB002EAC
:1017100000F0E880FEF728FF401BB04200F2E480B2
:1017200020684169890725D441694905F2D518E047
:10173000B9B9416989071DD44169490511D4416985
:10174000890717D4416949050BD44169890711D428
:101750004169490505D4416989070BD441694905A7
:10176000E7D5016841F4007101606FF48061416167
:101770000420BAE000210091014651F8142F009294
:101780004A680092009A0A6812061ED4002E00F0E1
:101790008580721C4DD10A68520500F187800A6865
:1017A000120612D40A68520500F180800A681206F7
:1017B0000BD40A68520579D40A68120605D40A685F
:1017C000520573D40A681206E5D5B9F1010F43D06A
:1017D0004FEA18210161014651F8142F12063BD43B
:1017E000002E5BD0721C29D10A6852055ED40A68AB
:1017F000120631D40A68520558D40A6812062BD44E
:101800000A68520552D40A68120625D40A6852059D
:101810004CD40A681206E7D51EE000BFFEF7A4FE0E
:10182000401BB0423FD82068014651F8142F1206E1
:10183000CBD408684005F1D538E000BF0868400502
:1018400034D4FEF791FE401BB0422CD820680146EC
:1018500051F8142F1206F1D55FFA88F101610020CA
:1018600001B0BDE8F08300BFFEF77EFE002020211E
:10187000206384F83D1084F83E00216C41F0200183
:101880002164216884F83C000868C00544BF4FF417
:1018900000702064032001B0BDE8F08308684005B3
:1018A00004D4FEF761FE202004E000BF6FF48060E6
:1018B0000860042000212022216384F83D2084F860
:1018C0003E10226C1043206484F83C10206C0428E5
:1018D00017D12068016841F400710160012001B056
:1018E000BDE8F083FEF740FE202000212022216386
:1018F00084F83D2084F83E10226C1043206484F864
:101900003C10012001B0BDE8F083000070B5036811
:10191000044653F8140F400737D40E46F1B1701C3B
:1019200024D100BF1868400532D4186840072CD471
:10193000186840052CD41868400726D4186840055C
:1019400026D41868400720D41868400520D41868A9
:1019500040074FF0000048BF70BDE3E7186840053E
:1019600016D4FEF701FE202016E000BF154600BF8A
:10197000186840050CD4FEF7F7FD401BB042F2D8C2
:10198000236853F8140F4007F2D5002070BD00BF44
:101990006FF480601860042000212022216384F805
:1019A0003D2084F83E10226C10432064012084F80E
:1019B0003C1070BD2DE9F04784B041F21800C4F22C
:1019C0000200016840F6000A41F010010160016860
:1019D000C4F2010A01F010010091009901680AF5B2
:1019E000006541F0200101600168002201F0200142
:1019F0000091009901684FF4005641F00401016024
:101A000001684FF0000901F004010091009901689C
:101A100041F00801016000684FF4005100F0080037
:101A2000009000982846FEF799FD50460F210022AD
:101A30004FF00F08FEF792FD00966E460127022434
:101A400028463146CDE901790394FEF76BFC5046F8
:101A50003146CDE90087CDE90294FEF763FCF02022
:101A6000CDE90009504631460297FEF75BFC04B011
:101A7000BDE8F08780B540F2046045F20041C2F253
:101A80000000C4F2000148F2A06200234FF4804C31
:101A9000C0F2010280E80E00C0E9033CC0E9053352
:101AA000C0E90733FEF766FD002808BF80BDBDE82A
:101AB0008040FEF7A3BB000080B540F2586043F6BB
:101AC0000001C2F20000C4F2010100234FF00C0C2F
:101AD0004FF4E13280E80E00C0E90333C0E905C3EA
:101AE000C361FFF70FFC002808BF80BDBDE8804040
:101AF000FEF784BB80B540F29C6044F60001C2F260
:101B00000000C4F2000100234FF00C0C4FF4E1324E
:101B100080E80E00C0E90333C0E905C3C361FFF7E5
:101B2000F1FB002808BF80BDBDE88040FEF766BB22
:101B3000FEE70000FEE700002DE9F04F85B040F21F
:101B40000464002564260127C2F200040DF1120B83
:101B50000DF113084FF0000909F1B0008DF81000E5
:101B600004A8CDE90007204678210022012302962F
:101B7000FEF7BCFD0DF11100CDE9000720467821EC
:101B8000002201238DF811500296FEF7AFFD1020C0
:101B90008DF812002046782100220123CDE900B7FC
:101BA0000296FEF7A3FD4FF0000A00BF2046782101
:101BB000402201238DF81350CDE900870296FEF7ED
:101BC00095FD0AF101004FFA80FABAF1FF3FEDDC12
:101BD000B9F1070F09F10109BED305B0BDE8F08FD7
:101BE0002DE9F04184B040F20464AE20C2F200045A
:101BF0008DF80F00642501260DF10F07204678218E
:101C000000220123CDE9007602954FF00008FEF78F
:101C10006DFD40208DF80F00204678210022012321
:101C2000CDE900760295FEF761FDB0208DF80F003A
:101C30002046782100220123CDE900760295FEF7A7
:101C400055FDC8208DF80F00204678210022012381
:101C5000CDE900760295FEF749FD81208DF80F0051
:101C60002046782100220123CDE900760295FEF777
:101C70003DFDFF208DF80F00204678210022012332
:101C8000CDE900760295FEF731FDA1208DF80F0019
:101C90002046782100220123CDE900760295FEF747
:101CA00025FDA6208DF80F00204678210022012373
:101CB000CDE900760295FEF719FDA8208DF80F00FA
:101CC0002046782100220123CDE900760295FEF717
:101CD0000DFD1F208DF80F002046782100220123E2
:101CE000CDE900760295FEF701FDD3208DF80F00B7
:101CF0002046782100220123CDE900760295FEF7E7
:101D0000F5FC20467821002201238DF80F80CDE9D3
:101D100000760295FEF7EAFCD5208DF80F002046EC
:101D2000782100220123CDE900760295FEF7DEFC42
:101D3000F0208DF80F002046782100220123CDE904
:101D400000760295FEF7D2FCD9208DF80F002046D0
:101D5000782100220123CDE900760295FEF7C6FC2A
:101D600022208DF80F002046782100220123CDE9A2
:101D700000760295FEF7BAFCDA208DF80F002046B7
:101D8000782100220123CDE900760295FEF7AEFC12
:101D900002208DF80F002046782100220123CDE992
:101DA00000760295FEF7A2FCDB208DF80F0020469E
:101DB000782100220123CDE900760295FEF796FCFA
:101DC00049208DF80F002046782100220123CDE91B
:101DD00000760295FEF78AFC8D208DF80F002046D4
:101DE000782100220123CDE900760295FEF77EFCE2
:101DF00014208DF80F002046782100220123CDE920
:101E000000760295FEF772FCAF208DF80F00204699
:101E1000782100220123CDE900760295FEF766FCC9
:101E2000FFF78AFE04B0BDE8F08100002DE9F04F15
:101E300085B00746A1F1500040F204648DF80C0013
:101E4000012503A8C2F20004164688464FF0640933
:101E5000CDE900052046782100220123CDF8089025
:101E6000FEF744FC380900F1100A0DF10D00CDE930
:101E7000000520467821002201238DF80DA0CDF821
:101E80000890FEF733FC0DF10E0007F00F0BCDE9C3
:101E9000000520467821002201238DF80EB0CDF8F0
:101EA0000890FEF723FC40F21000C2F20000B101DE
:101EB000415C00EB86168DF80F100DF10F072046E0
:101EC000782140220123CDE90075CDF80890FEF776
:101ED0000DFC707878218DF80F00204640220123F8
:101EE000CDE90075CDF80890FEF700FCB0787821B8
:101EF0008DF80F00204640220123CDE90075CDF872
:101F00000890FEF7F3FBF07878218DF80F0020465B
:101F100040220123CDE90075CDF80890FEF7E6FBDD
:101F2000307978218DF80F00204640220123CDE939
:101F30000075CDF80890FEF7D9FB707978218DF8FF
:101F40000F00204640220123CDE90075CDF808900E
:101F5000FEF7CCFBB07978218DF80F0020464022A7
:101F60000123CDE90075CDF80890FEF7BFFBF079AD
:101F700078218DF80F00204640220123CDE900751D
:101F8000CDF80890FEF7B2FB307A78218DF80F007B
:101F9000204640220123CDE90075CDF80890FEF7D8
:101FA000A5FB707A78218DF80F002046402201238E
:101FB000CDE90075CDF80890FEF798FBB07A78214E
:101FC0008DF80F00204640220123CDE90075CDF8A1
:101FD0000890FEF78BFBF07A78218DF80F002046F1
:101FE00040220123CDE90075CDF80890FEF77EFB75
:101FF000307B78218DF80F00204640220123CDE967
:102000000075CDF80890FEF771FB707B78218DF894
:102010000F00204640220123CDE90075CDF808903D
:10202000FEF764FBB07B78218DF80F00204640223C
:102030000123CDE90075CDF80890FEF757FBF07B42
:1020400078218DF80F00204640220123CDE900754C
:10205000CDF80890FEF74AFBA8F14F008DF810006C
:1020600004A8CDE900052046782100220123CDF8FF
:102070000890FEF73BFB0DF11100CDE9000520466D
:102080007821002201238DF811A0CDF80890FEF7E9
:102090002DFB0DF11200CDE900052046782100222C
:1020A00001238DF812B0CDF80890FEF71FFB96F8CB
:1020B00020000DF113078DF81300204678214022EF
:1020C0000123CDE90075CDF80890FEF70FFB96F8D7
:1020D000210078218DF81300204640220123CDE90C
:1020E0000075CDF80890FEF701FB96F822007821E4
:1020F0008DF81300204640220123CDE90075CDF86C
:102100000890FEF7F3FA96F8230078218DF8130073
:10211000204640220123CDE90075CDF80890FEF756
:10212000E5FA96F8240078218DF813002046402225
:102130000123CDE90075CDF80890FEF7D7FA96F89F
:10214000250078218DF81300204640220123CDE997
:102150000075CDF80890FEF7C9FA96F826007821A8
:102160008DF81300204640220123CDE90075CDF8FB
:102170000890FEF7BBFA96F8270078218DF8130037
:10218000204640220123CDE90075CDF80890FEF7E6
:10219000ADFA96F8280078218DF8130020464022E9
:1021A0000123CDE90075CDF80890FEF79FFA96F867
:1021B000290078218DF81300204640220123CDE923
:1021C0000075CDF80890FEF791FA96F82A0078216C
:1021D0008DF81300204640220123CDE90075CDF88B
:1021E0000890FEF783FA96F82B0078218DF81300FB
:1021F000204640220123CDE90075CDF80890FEF776
:1022000075FA96F82C0078218DF8130020464022AC
:102210000123CDE90075CDF80890FEF767FA96F82E
:102220002D0078218DF81300204640220123CDE9AE
:102230000075CDF80890FEF759FA96F82E0078212F
:102240008DF81300204640220123CDE90075CDF81A
:102250000890FEF74BFA96F82F0078218DF81300BE
:10226000204640220123CDE90075CDF80890FEF705
:102270003DFA05B0BDE8F08F2DE9F04F89B040B2CE
:102280000D46A2F12001002820EAE0724FF010076D
:1022900048BF0235A5F1500047EA121402F00F07BB
:1022A000102BCEB240F0368140F204688DF8180051
:1022B0004FF0010B06A8C2F200084FF06409CDE907
:1022C000000B4046782100220123CDF80890FEF74C
:1022D0000DFA0DF11900CDE9000B404678210022DE
:1022E00001238DF81940CDF80890FEF7FFF90DF1A4
:1022F0001A00CDE9000B40467821002201238DF819
:102300001A70CDF808904FF06409FEF7EFF943F228
:10231000EE113001C0F60001085C01EB06168DF8E5
:102320001B0005970DF11B07404678214022012331
:10233000CDE9007BCDF80890FEF7D8F970783179B7
:1023400096F802A0049496F8039003918DF81B0070
:1023500040467821402201236424CDE9007B029489
:10236000FEF7C4F9404678214022012364248DF809
:102370001BA0CDE9007B0294FEF7B8F94046782116
:10238000402201238DF81B90CDE9007B0294FEF7DB
:10239000ADF9039878218DF81B00404640220123B7
:1023A000CDE9007B0294FEF7A1F9707978218DF8D0
:1023B0001B00404640220123CDE9007B0294FEF73A
:1023C00095F9B07978218DF81B0040464022012311
:1023D000CDE9007B0294FEF789F9F07978218DF838
:1023E0001B00404640220123CDE9007B0294FEF70A
:1023F0007DF9A5F14F008DF81C0007A8CDE9000B71
:1024000040467821002201230294FEF76FF90498D8
:1024100078218DF81D000DF11D00CDE9000B40461F
:10242000002201230294FEF761F9059878218DF8C6
:102430001E000DF11E00CDE9000B404600220123D5
:102440000294FEF753F9307A0DF11F058DF81F0045
:102450004046782140220123CDE9005B0294FEF73B
:1024600045F9707A78218DF81F00404640220123FB
:10247000CDE9005B0294FEF739F9B07A78218DF846
:102480001F00404640220123CDE9005B0294FEF785
:102490002DF9F07A78218DF81F0040464022012363
:1024A000CDE9005B0294FEF721F9307B78218DF8AD
:1024B0001F00404640220123CDE9005B0294FEF755
:1024C00015F9707B78218DF81F00404640220123CA
:1024D000CDE9005B02946424FEF708F9B07B782113
:1024E0008DF81F00404640220123CDE9005B029495
:1024F0006424FEF7FBF8F07BCDE9005B8DF81F004C
:1025000040467821402201230294FEF7EFF809B0FB
:10251000BDE8F08F40F2046B8DF820004FF0010A07
:1025200008A8C2F2000B4FF06408CDE9000A584633
:10253000782100220123CDF80880FEF7D7F80DF1AD
:102540002100CDE9000A58467821002201238DF8A8
:102550002140CDF80880FEF7C9F80DF12200CDE941
:10256000000A58467821002201238DF82270CDF808
:102570000880FEF7BBF842F6C67106EB4600C0F6CF
:10258000000111F8102001EB40058DF823200DF11A
:1025900023065846782140220123CDE9006ACDF870
:1025A0000880FEF7A3F86878AF78EC7895F8049087
:1025B0008DF823005846782140220123CDE9006A96
:1025C000CDF80880FEF792F8584678214022012382
:1025D0008DF82370CDE9006ACDF80880FEF786F803
:1025E00058467821402201238DF82340CDE9006A26
:1025F000CDF80880FEF77AF858467821402201236A
:102600008DF82390CDE9006ACDF80880FEF76EF8CA
:10261000687978218DF82300584640220123CDE9BE
:10262000006ACDF80880FEF761F809B0BDE8F08FC8
:102630002DE9F04115461278002A08BFBDE8F08167
:1026400098460E4607460024F8B2F1B2D2B243468D
:10265000FFF712FE0837F8B201347828E0B288BFDD
:1026600002362A5C88BF0027002AEDD1BDE8F08140
:102670007047000070470000FEF758B9704700002F
:10268000406A0021C185C184FEF702BD81B090F887
:102690003E10222921D183680246B3F5805F09D11B
:1026A00052F8281F52F8183C002B3FD003685B6893
:1026B0000AE000BF52F8281F13B90369002BF5D0B8
:1026C00003685B6803F07F030B70116801311160D0
:1026D000C18D01390A04C18502D001B0704700BF25
:1026E0000168CA6822F02002CA60CA6822F48072B7
:1026F000CA604A6922F001024A61202280F83E2025
:10270000026B012A1AD100220263CB6823F0100366
:10271000CB600B68DB0605D500920A680092496819
:1027200000910099818D01B0FEF7B0BC026852683B
:102730006FF35F2221F8022B8162C9E701B0FEF737
:10274000D3BE000040F25860C2F20000FEF7A2BC07
:10275000FEE70000F0B581B040F2E060C2F2000098
:10276000007801287CD140F2D856C2F20006707879
:10277000012875D106F11F0006F11401FDF7F2FCE6
:10278000FDF7D0FC4CF6CD45CCF6CC45A0FB0512B0
:10279000D10801EB810143F6B407A0EB4100C0F67C
:1027A0000007385C40F2E164C2F2000404F80B0F49
:1027B000FDF7B8FCA0FB0512D10801EB8101A0EBED
:1027C0004100385C6070FDF7ADFCA0FB0512D1083C
:1027D00001EB8101A0EB4100385CA070FDF7A2FC89
:1027E000A0FB0512D10801EB8101A0EB4100385C90
:1027F000E070FDF797FCA0FB0512D10801EB810109
:10280000A0EB4100385C2071FDF78CFCA0FB0512A9
:10281000D10801EB8101A0EB4100385C06F108050D
:10282000607128462146FDF79DFC43F2EE70C0F62C
:102830000000294600F01EFBC820FDF75FFDFFF7F2
:102840007BF90820002115220024FFF7EFFA282049
:1028500000211622FFF7EAFA708874700130708048
:1028600001B0F0BD80B520A000F08EFB4FF4FA60FF
:10287000FDF744FD1DA000F087FB41F28830FDF715
:102880003DFD41F28830FDF739FD41F28830FDF71A
:1028900035FD41F28830FDF731FD1DA000F074FBDD
:1028A00040F6B830FDF72AFD43F6BF00C0F6000041
:1028B00000F06AFB40F6B830FDF720FD43F63A1011
:1028C000C0F6000000F060FB40F6B830FDF716FDE2
:1028D00043F6A110C0F6000000F056FB40F6B830F9
:1028E000BDE88040FDF70ABD41540D0041542B4323
:1028F000574A41503D22534E422D4775657374220D
:102900002C22536E623238323932373030220D0089
:1029100041542B434950534E54504346473D312C6C
:10292000382C226E7470312E616C6979756E2E634D
:102930006F6D220D0000000080B582B08DF8070099
:1029400040F25860C2F200000DF10701012202239B
:10295000FEF7CCFD002002B080BD000090B0FDF776
:10296000F3FF00240120CDE90B44CDE90944069092
:102970000A904FF4E0104FF4803102250F9006A822
:10298000CDE90714CDE90D51FEF790F920B1EFF331
:10299000108072B6FEE700BF0F20CDE901054FF4AD
:1029A0008060CDE9040401A802210394FEF776F8C3
:1029B00020B1EFF3108072B6FEE700BFFEF7FAFF1A
:1029C000FFF758F8FFF778F8FFF794F8FFF708F9E2
:1029D000FFF7B2F8FFF746FF40F2D85540F2E1604A
:1029E000C2F2000540F2E068C2F2000041F20009C4
:1029F0004FF0000B05F11404C2F2000805F10E0AB5
:102A00000B30C4F20109009021E000BF1426132707
:102A1000C5F81BB0C5E905BBFFF78EF808200021FB
:102A20003A46FFF703FA282000213246FFF7FEF965
:102A3000688885F801B001306880FFF78BFE484652
:102A40004FF40051FDF782FDC820FDF757FC00F060
:102A5000C9F8411E0F29A88038D8DFE801F0090D18
:102A60001115191D2125292D313F4B57858B00BF8D
:102A7000E888312226E000BFE888322222E000BF49
:102A8000E88833221EE000BFE88830221AE000BF49
:102A9000E888342216E000BFE888352212E000BF43
:102AA000E88836220EE000BFE88801380DE000BF5C
:102AB000E888372206E000BFE888382202E000BF3D
:102AC000E8883922291801300A75E8802878022818
:102AD00024D0012824D100F069F821E0A5F806B03F
:102AE000FFF72AF8C5F81BB0C5E905BBA5F806B085
:102AF000ECE700BFFFF720F8012088F800002870FD
:102B0000A5F806B000F052F80AE000BFFFF714F88D
:102B1000022088F800002870A5F806B000F02EF812
:102B2000E88803210C284FF0000022464FF00B03E9
:102B300028BFA5F806B0FFF77BFD98F80000022833
:102B40007FF47BAF687801287FF477AF5046214649
:102B5000FDF708FB0099FDF7F7FA00287FF456AF60
:102B60001226112758E700BF01206870A5F806B0AB
:102B7000ACE700BF88F800B0A8E7000080B50020EF
:102B800000210922FFF752F9102000210A22FFF745
:102B90004DF9202000210B22FFF748F930200021B9
:102BA0000022BDE88040FFF741B9000080B5002059
:102BB00000210522FFF73AF9102000210622FFF735
:102BC00035F9202000210722FFF730F930200021BD
:102BD0000822FFF72BF9402000210022BDE88040A9
:102BE000FFF724B910B540F60004C4F201042046F2
:102BF00008210022FDF7B2FC204604210122FDF746
:102C0000ADFC204602210122FDF7A8FC204601214F
:102C10000122FDF7A3FC20461021FDF791FC0028BE
:102C200000F0A88020462021FDF78AFC002800F053
:102C3000A18020464021FDF783FC002800F09A8007
:102C400020468021FDF77CFC002800F09380204680
:102C500008210122FDF782FC204604210022FDF715
:102C60007DFC204602210122FDF778FC204601214F
:102C70000122FDF773FC20461021FDF761FC0028BE
:102C800000F0928020462021FDF75AFC002800F039
:102C90008B8020464021FDF753FC002800F0848003
:102CA00020468021FDF74CFC00287DD020460821DD
:102CB0000122FDF753FC204604210122FDF74EFCC2
:102CC000204602210022FDF749FC20460121012275
:102CD000FDF744FC20461021FDF732FC002800F0EF
:102CE000838020462021FDF72BFC00287CD0204645
:102CF0004021FDF725FC002876D020468021FDF7F5
:102D00001FFC002870D0012001210122002300F0C7
:102D100091F820461021FDF713FC88B120462021B0
:102D2000FDF70EFC60B120464021FDF709FC38B1EB
:102D300020468021FDF704FC00281CBF002010BDA8
:102D400020461021FDF7FCFB00286DD020462021F5
:102D5000FDF7F6FB002869D020464021FDF7F0FB87
:102D6000002865D020468021FDF7EAFBB0B910208D
:102D700010BD00BF20461021FDF7E2FB80B12046C8
:102D80002021FDF7DDFB68B120464021FDF7D8FB8F
:102D900010B320468021FDF7D3FBF8B1002010BD11
:102DA000012010BD022010BD20461021FDF7C8FBF8
:102DB000B0B120462021FDF7C3FB98B12046402149
:102DC000FDF7BEFB40B320468021FDF7B9FB00288C
:102DD000E4D1082010BD00BF032010BD042010BDA9
:102DE000052010BD062010BD20461021FDF7A8FBD0
:102DF000A0B120462021FDF7A3FB88B12046402149
:102E0000FDF79EFB70B120468021FDF799FB00285D
:102E1000C4D10C2010BD00BF072010BD092010BD7B
:102E20000A2010BD0B2010BD0D2010BD0E2010BDBE
:102E30000F2010BDF0B581B040F60007C4F20107C5
:102E400015460E460246384608211C46FDF786FB0D
:102E5000384604213246FDF781FB384602212A46D6
:102E6000FDF77CFB38460121224601B0BDE8F04069
:102E7000FDF774BB0FB4054B10B503A9044A0298C3
:102E800000F017F810BC5DF814FB000039290008A9
:102E90000400002002E008C8121F08C1002AFAD16D
:102EA00070477047002001E001C1121F002AFBD1CA
:102EB00070472DE9F84F9946924688460546002707
:102EC00006E025280AD051464A4690476D1C7F1CD3
:102ED00028780028F5D13846BDE8F88F002315F88A
:102EE000011F18462E2915D115F8011F04232A2980
:102EF0000DD06FF02F022978A1F13004092C09D8E8
:102F000000EB800002EB400008446D1CF3E758F82A
:102F1000040B6D1C2A78002ADDD0632A07D0732A9F
:102F20000FD0104651464A4690477F1C2AE018F8B9
:102F3000042B8DF8002000218DF801106E46012130
:102F400003E058F8046B4FF0FF315A074FF00004CC
:102F500001D409E0641C84420BDA8C42FADB325D56
:102F6000002AF7D105E0641C8C42FCDB305D0028B0
:102F7000F9D1274404E016F8010B51464A46904720
:102F8000641EF8D26D1CA3E710B5044601E0FFF7FC
:102F9000D3FC14F8010B04490028F8D1BDE8104017
:102FA0000A20FFF7C9BC0000040000200102000055
:102FB00000000000000001020304060708090000E9
:102FC0000000010203040000000000000000002FC8
:102FD000000000000700070000147F147F14002485
:102FE0002A7F2A12006264081323003649552250B2
:102FF00000000503000000001C22410000004122E7
:103000001C000014083E08140008083E08080000D0
:1030100000A06000000808080808000060600000C8
:10302000002010080402003E5149453E0000427F46
:103030004000004261514946002141454B31001892
:1030400014127F10002745454539003C4A49493054
:10305000000171090503003649494936000649490E
:10306000291E000036360000000056360000000819
:1030700014224100001414141414000041221408F6
:1030800000020151090600324959513E007C1211DB
:10309000127C007F49494936003E41414122007F70
:1030A0004141221C007F49494941007F090909012A
:1030B000003E4149497A007F0808087F0000417FAF
:1030C0004100002040413F01007F08142241007F61
:1030D00040404040007F020C027F007F0408107FC8
:1030E000003E4141413E007F09090906003E415131
:1030F000215E007F091929460046494949310001EE
:10310000017F0101003F4040403F001F2040201F41
:10311000003F4038403F0063140814630007087004
:10312000080700615149454300007F4141000055B7
:103130002A552A55000041417F0000040201020483
:103140000040404040400000010204000020545470
:103150005478007F484444380038444444200038C0
:103160004444487F00385454541800087E09010232
:103170000018A4A4A47C007F080404780000447D07
:103180004000004080847D00007F10284400000043
:10319000417F4000007C04180478007C0804047817
:1031A00000384444443800FC242424180018242403
:1031B00018FC007C080404080048545454200004FF
:1031C0003F444020003C4040207C001C2040201C0C
:1031D000003C4030403C004428102844001CA0A083
:1031E000A07C004464544C441414141414140000BF
:1031F00000000000000000000000000000000000CF
:1032000000F8000000000000003330000000001053
:103210000C06100C0600000000000000000040C07A
:103220007840C0784000043F04043F04040000706C
:1032300088FC08300000001820FF211E0000F00864
:10324000F000E018000000211C031E211E0000F009
:103250000888700000001E21232419272110101651
:103260000E00000000000000000000000000000050
:1032700000E01804020000000007182040000002CF
:103280000418E00000000040201807000000404043
:1032900080F0804040000202010F010202000000A5
:1032A00000F0000000000101011F01010100000009
:1032B00000000000000080B070000000000000006E
:1032C00000000000000000010101010101010000F7
:1032D000000000000000003030000000000000008E
:1032E000000080601804006018060100000000E083
:1032F00010080810E000000F102020100F00001030
:1033000010F8000000000020203F20200000007086
:10331000080808887000003028242221300000307E
:103320000888884830000018202020110E00000076
:10333000C02010F8000000070424243F240000F8F7
:103340000888880808000019212020110E0000E0DC
:10335000108888180000000F112020110E0000387E
:103360000808C83808000000003F00000000007096
:10337000880808887000001C222121221C0000E01F
:1033800010080810E0000000312222110F00000098
:1033900000C0C0000000000000303000000000004D
:1033A00000800000000000008060000000000000BD
:1033B0008040201008000001020408102000404056
:1033C0004040404040000404040404040400000899
:1033D000102040800000002010080402010000704E
:1033E00048080808F0000000003036010000C03036
:1033F000C828E810E0000718272423140B00000059
:10340000C038E0000000203C23020227382008F8E2
:10341000888888700000203F202020110E00C030D6
:10342000080808083800071820202010080008F8AD
:1034300008080810E000203F202020100F0008F8A6
:103440008888E8081000203F20202320180008F872
:103450008888E8081000203F200003000000C030EA
:1034600008080838000007182020221E020008F86B
:1034700008000008F808203F210101213F20000832
:1034800008F8080800000020203F2020000000006D
:103490000808F8080800C08080807F00000008F855
:1034A00088C028180800203F20012638200008F88E
:1034B000080000000000203F20202020300008F8F5
:1034C000F800F8F80800203F003F003F200008F80F
:1034D00030C00008F808203F200007183F00E01027
:1034E00008080810E0000F10202020100F0008F836
:1034F00008080808F000203F210101010000E01049
:1035000008080810E0000F18242438504F0008F86D
:10351000888888887000203F2000030C30200070CD
:103520008808080838000038202121221C001808CB
:1035300008F8080818000000203F2000000008F8E4
:1035400008000008F808001F202020201F0008782D
:10355000880000C83808000007380E010000F8088D
:1035600000F80008F800033C0700073C03000818B7
:1035700068808068180820302C03032C302008381D
:10358000C800C83808000000203F200000001008D4
:103590000808C8380800203826212020180000001C
:1035A00000FE020202000000007F40404000000CCC
:1035B00030C000000000000000010638C00000021A
:1035C0000202FE000000004040407F0000000000BA
:1035D00004020202040000000000000000000000DD
:1035E00000000000000080808080808080800002D9
:1035F00002040000000000000000000000000000C5
:103600008080808000000019242222223F2008F8B8
:10361000008080000000003F112020110E000000FB
:10362000008080800000000E11202020110000008A
:1036300000808088F800000E112020103F2000003C
:10364000808080800000001F222222221300008040
:1036500080F0888888180020203F2020000000008B
:10366000808080808000006B94949493600008F8C0
:10367000008080800000203F210000203F2000804B
:103680009898000000000020203F2020000000004B
:1036900000809898000000C08080807F000008F8BB
:1036A000000080808000203F24022D302000000890
:1036B00008F8000000000020203F2020000080804B
:1036C000808080808000203F20003F20003F80805D
:1036D000008080800000203F210000203F2000006B
:1036E000808080800000001F202020201F0080801C
:1036F00000808000000080FFA12020110E0000004B
:10370000008080808000000E112020A0FF8080803B
:1037100080008080800020203F21200001000000E8
:1037200080808080800000332424242419000080BD
:1037300080E0808000000000001F202000008080CA
:10374000000000808000001F202020103F2080808B
:1037500080000080808000010E300806010080801B
:103760000080008080800F300C030C300F00008040
:103770008000808080000020312E0E31200080806B
:1037800080000080808080818E701806010000809B
:103790008080808080000021302C222130000000B9
:1037A0000000807C020200000000003F404000005A
:1037B0000000FF00000000000000FF000000000209
:1037C000027C800000000040403F00000000000636
:1037D00001010202040400000000000000000203D6
:1037E0000405060708090A0B0C0D0E0F10104154B2
:1037F0002B4D5154545055423D302C222F73797328
:103800002F61317551526336326354542F65737092
:10381000383236362F7468696E672F6576656E7438
:103820002F70726F70657274792F706F7374222CA1
:10383000227B5C226D6574686F645C223A5C227442
:1038400068696E672E736572766963652E70726F34
:1038500070657274792E7365745C225C2C5C2269CD
:10386000645C223A5C2231363938373339393131A8
:103870005C225C2C5C22706172616D735C223A7B0D
:103880005C2270617373776F72645C223A5C2225EC
:10389000735C227D5C2C5C2276657273696F6E5C52
:1038A000223A5C22312E302E305C227D222C312CAB
:1038B000300D0A0030313233343536373839004173
:1038C000542B4D515454555345524346473D302C8B
:1038D000312C224E554C4C222C22657370383236D6
:1038E00036266131755152633632635454222C228C
:1038F000623439663839346238356634306132635F
:1039000064316362383036643438346365656363C8
:103910003963316165383731343533386265336145
:10392000373037396633316333633130653038636C
:10393000222C302C302C22220D0041542B4D51547E
:1039400054434C49454E5449443D302C2261317515
:1039500051526336326354542E65737038323636A2
:103960007C7365637572656D6F64653D325C2C7345
:1039700069676E6D6574686F643D686D61637368D7
:10398000613235365C2C74696D657374616D703DA0
:10399000313637373431383932303836397C220DC8
:1039A0000041542B4D515454434F4E4E3D302C2228
:1039B00061317551526336326354542E696F742DE0
:1039C00061732D6D7174742E636E2D7368616E67F3
:1039D0006861692E616C6979756E63732E636F6DB2
:1039E000222C313838332C310D000000103A0008F9
:1039F00000000020D80500009C010008603C000881
:103A0000D805002068060000A42E00080000000071
:103A1000813201621059070119021C08000F1204BB
:103A2000244484649C40300FC808082818001011F2
:103A300010080601824C2018060106182040802537
:103A4000404042CC1CFC040204031304FC000F1190
:103A500040201F20404F4442407F42444340180BC7
:103A60008060F80704E4242424FF040313E4041210
:103A7000FF080B1080814529112F41418181802150
:103A80001BFE2201490501131D80601F020107135F
:103A90007F020242827F00101188681FC80810C888
:103AA0005452D1129408D01016091909FF0515FFB8
:103AB0001292FF0B125F804141051701E21CE037B3
:103AC000804020100C030E12030C304080C019F807
:103AD0001C2424FCBF0313232229BD29BB3908035E
:103AE000110202171010D0FF90101AFE1C0214FED3
:103AF00013040312FF3483601F0D123F40407861AE
:103B0000000E11FE929292FE02067C840484740CD4
:103B10000010120808070404043F121210090605D9
:103B20000810000F121008FC8282909088BEA8A492
:103B3000A42220080E1020202F2010100C020808AC
:103B4000101710200010100484E45C44C40402C266
:103B5000BA828282FE80130101151F08081F198492
:103B600006130404242430091194C9C2011C001056
:103B700011108C4404E40495A64424148444940C49
:103B8000000E1302027A414143427E42424243F810
:103B900049BF113B02F2BEF9BF111702017F10109D
:103BA0003F1A080105124888403F18080202C20265
:103BB0000202FE3F04128282025D4040407F0429DF
:103BC00001091580080A152010E82724E4342CE0A8
:103BD00080080A8F80601F09093F49897F80380A61
:103BE0004030EF246448487F480409106016010102
:103BF0007F21112BFF49010213FF244042CC2C806E
:103C00009E920103149E80000E137F20948444240E
:103C1000140F14244484841BF88801000911080837
:103C2000FF08090AC80819BA11000C1110201F80DA
:103C3000402116182641F81D080808F8040008124B
:103C40001010FF101010F0000F131030101F088814
:103C500048300E014080403F5324F4000000000033
:04000005080000ED02
:00000001FF
